:1000000045C0000053C0000051C000004FC00000B8
:100010004DC000004BC0000049C0000047C00000B8
:1000200045C0000043C0000041C000003FC00000C8
:100030003DC000003BC0000039C0000037C00000D8
:1000400035C0000033C0000031C000002FC00000E8
:100050002DC000002BC0000029C0000027C00000F8
:1000600025C0000023C0000021C000001FC0000008
:100070001DC000001BC0000019C0000017C0000018
:1000800015C0000013C0000011C0000011241FBEE5
:10009000CFEFD0E4DEBFCDBF22E0A0E0B1E001C0F1
:1000A0001D92AA3FB207E1F7CBD000C1A9CF5C985F
:1000B000662311F05A9A15C05A9813C0AC01022E4B
:1000C00002C0559547950A94E2F740FF02C0599A3D
:1000D00001C05998589A58982150310978F75C9A7C
:1000E000089527E030E090E0E9CF60E0E0CF0895A8
:1000F000CF93DF93549A539A529A519A509A5B9A9B
:100100005C9A83EC99E00197F1F700C000005B98DE
:100110008BE594E40197F1F700C000005B9A5C98CE
:1001200081E2E3DF83E1E1DF86E0DFDF82ECDDDF38
:1001300080E2DBDF89E0D9DF80E8D7DF80E4D5DF4C
:10014000C8EFD1E061E080E0B2DF2197D9F788E025
:10015000CCDF8CE0CADFDF91CF91089580E8C5DF66
:1001600080E4C3DF1092F8021092F902E0E0F1E0BF
:1001700088EF92E01192E817F907E1F70895262F2A
:1001800026952695269590E034E5239F800D911DB8
:100190001124442379F0FC01E050FF4F677081E0A7
:1001A00090E002C0880F991F6A95E2F79081892B31
:1001B00080830895FC01E050FF4F677081E090E07C
:1001C00002C0880F991F6A95E2F780959081892374
:1001D000808308950F931F93CF93DF9380E885DF8B
:1001E00080E483DFC0E0D1E008EF12E061E08991B4
:1001F0005EDFC017D107D1F7DF91CF911F910F912B
:100200000895119A109A119820B130E020953095F8
:1002100022FB882780F990E040E150E01098880F99
:10022000991F20B130E02095309522FB662760F9B8
:1002300070E0862B972B109A4150510979F7089559
:1002400083E081B912B854DF0AE01AE0DADFEC018A
:1002500090FF07C083DF1F5F41E0602F812F8FDF9A
:10026000B9DFD1FF07C07ADF115041E0602F812F45
:1002700086DFB0DFD2FF07C071DF0F5F41E0602F84
:10028000812F7DDFA7DFD3FF07C068DF015041E08A
:10029000602F812F74DF9EDF2FE38DE093E02150EC
:1002A00080409040E1F700C00000D0CFF894FFCF2D
:00000001FF
