:1000000035C1000051C100004FC100004DC10000CA
:100010004BC1000049C1000047C1000045C10000BC
:1000200043C1000041C100003FC100003DC10000CC
:100030003BC1000036C5000037C1000035C10000DB
:1000400033C1000031C100002FC100002DC10000EC
:100050002BC1000029C1000027C1000025C10000FC
:1000600023C1000021C100001FC100001DC100000C
:100070001BC1000019C1000017C1000015C100001C
:1000800013C1000011C100000FC1000000000000FA
:100090000000005F00000007000700147F147F14B9
:1000A000242A7F2A122313086462364955225000FD
:1000B00005030000001C2241000041221C0014081E
:1000C0003E081408083E08080050300000080808E0
:1000D0000808006060000020100804023E514945F5
:1000E0003E00427F400042615149462141454B312B
:1000F0001814127F1027454545393C4A49493001BB
:10010000710905033649494936064949291E003611
:100110003600000056360000081422410014141462
:100120001414004122140802015109063249794190
:100130003E7E1111117E7F494949363E414141229F
:100140007F4141221C7F494949417F090909013EFC
:100150004149497A7F0808087F00417F41002040DB
:10016000413F017F081422417F404040407F020C04
:10017000027F7F0408107F3E4141413E7F0909090B
:10018000063E4151215E7F091929464649494931B8
:1001900001017F01013F4040403F1F2040201F3FA1
:1001A0004038403F63140814630708700807615122
:1001B000494543007F4141000204081020004141AD
:1001C0007F0004020102044040404040000102045C
:1001D0000020545454787F484444383844444420E0
:1001E000384444487F3854545418087E0901020C9E
:1001F0005252523E7F0804047800447D4000204063
:10020000443D007F1028440000417F40007C0418DA
:1002100004787C0804047838444444387C1414146A
:1002200008081414187C7C0804040848545454200A
:10023000043F4440203C4040207C1C2040201C3C8B
:100240004030403C44281028440C5050503C4464FA
:10025000544C44000836410000007F000000413645
:1002600008001008081008000000000011241FBE3C
:10027000CFEFD0E4DEBFCDBF11E0A0E0B1E0E2E41B
:10028000F9E100E00BBF02C007900D92A436B10760
:10029000D9F724E0A4E6B1E001C01D92AD37B20762
:1002A000E1F702D50C949F0CABCEFC010FB6F8948D
:1002B0006091790470917A0480917B0490917C0420
:1002C0000FBE309721F060837183828393830895FA
:1002D0005C98662311F05A9A15C05A9813C0AC0165
:1002E000022E02C0559547950A94E2F740FF02C0DE
:1002F000599A01C05998589A58982150310978F75D
:100300005C9A089527E030E090E0E9CF60E0E0CF2C
:100310000895CF93DF93549A539A529A519A509AD0
:100320005B9A5C9A83EC99E00197F1F700C00000BA
:100330005B988BE594E40197F1F700C000005B9AAD
:100340005C9881E2E3DF83E1E1DF86E0DFDF82ECDE
:10035000DDDF80E2DBDF89E0D9DF80E8D7DF80E422
:10036000D5DFC8EFD1E061E080E0B2DF2197D9F7B7
:1003700088E0CCDF8CE0CADFDF91CF91089580E880
:10038000C5DF80E4C3DF1092640410926504ECE6DC
:10039000F2E084E694E01192E817F907E1F7089596
:1003A000262F26952695269590E034E5239F800DEF
:1003B000911D1124442379F0FC01E459FD4F67702D
:1003C00081E090E002C0880F991F6A95E2F7908162
:1003D000892B80830895FC01E459FD4F677081E00B
:1003E00090E002C0880F991F6A95E2F7809590818E
:1003F0008923808308955F926F927F928F929F925C
:10040000AF92BF92CF92DF92EF92FF920F931F9322
:10041000CF93DF93562E262F30E04901880C991C8C
:10042000880C991C820E931E181419040CF05BC0E2
:100430008901000F111F000F111F000F111F021B58
:10044000130B612CA82EB12CC50180975C01AA0C5E
:10045000BB1CAA0CBB1CA80EB91E0F2EF5E6CF2E96
:10046000F4E0DF2EF02D0F2EF4E6EF2EF4E0FF2E59
:10047000F02D2BC0FE01249130E0872D652D0E94C8
:10048000710B02C0359527958A95E2F720FF09C0C8
:10049000F6016081670DF701808141E0860D80DF04
:1004A00008C0F6016081670DF701808140E0860D8C
:1004B00077DF7394872D90E080179107DCF26394C7
:1004C000862D90E08815990574F410161106BCF776
:1004D000862D652D0E94710BE501C80FD11DC457F3
:1004E000DF4F712CC7CF8091640491E0980F852D68
:1004F000880F880F850D890F843518F48093640464
:100500000EC010926404E5E6F4E0808191E0980F5B
:10051000852D880F880F880F8519890F808380911A
:100520006504803320F01092640410926504DF911A
:10053000CF911F910F91FF90EF90DF90CF90BF90E0
:10054000AF909F908F907F906F905F9008951F93D2
:10055000CF93DF93EC018881882339F0162F219601
:10056000612F49DF89918111FBCFDF91CF911F91DD
:1005700008950F931F93CF93DF9380E8C7DE80E445
:10058000C5DECCE6D2E004E614E061E08991A0DEAD
:10059000C017D107D1F7DF91CF911F910F91089527
:1005A0001F93CF93DF938230910569F12CF400976C
:1005B00061F0019779F06FC08430910509F447C06C
:1005C000A4F1059709F455C066C080915F028111BE
:1005D000AAC161C080915E0281115DC080917304E7
:1005E000811159C080916302811171C080916202B2
:1005F0008111D1C080916102811131C1809160026D
:10060000811191C158C080915E02811144C08091D6
:100610007304811140C08091610281114CC08091AE
:100620006002882309F453C046C080915E028111A4
:1006300032C08091730481112EC0809161028111BA
:100640003AC080916002882309F4A5C034C080912B
:100650005E02811120C08091730481111CC08091C1
:100660006302811128C080916202882309F4F7C0D7
:1006700022C080915E0281110EC0809173048111AD
:100680000AC080916302811116C0809162028823A2
:1006900009F449C110C08AE08093070180930601E4
:1006A00041E06AE07DDE65DF10925E021092720426
:1006B00080E090E09BC141E06091060180910701DC
:1006C0006FDE57DF10925F0281E090E08FC181E022
:1006D0008093720440E0609106018091070160DE22
:1006E00080916704882341F0909106018091640213
:1006F000890F8093060105C0809106018F5F80936A
:10070000060141E0609106018091070149DE809178
:1007100066028823C1F110E0C12FD0E0FE01EE0F88
:10072000FF1FEE0FFF1FEC56FE4F40E063818281FA
:1007300037DE80916704882369F0FE01EE0FFF1F0A
:10074000EE0FFF1FEC56FE4F938180916402890FDC
:1007500083830AC0FE01EE0FFF1FEE0FFF1FEC5652
:10076000FE4F83818F5F8383CC0FDD1FCC0FDD1F96
:10077000CC56DE4F41E06B818A8112DE1F5F809193
:100780006602181748F2F5DE1092630210926202B8
:1007900082E090E02BC182E08093720440E060919F
:1007A000060180910701FCDD80916704882341F0F8
:1007B0008091060190916402891B8093060105C017
:1007C0008091060181508093060141E0609106010D
:1007D00080910701E5DD809166028823C1F110E078
:1007E000C12FD0E0FE01EE0FFF1FEE0FFF1FEC56F2
:1007F000FE4F40E063818281D3DD809167048823CE
:1008000069F0FE01EE0FFF1FEE0FFF1FEC56FE4FCB
:10081000838190916402891B83830AC0FE01EE0FDD
:10082000FF1FEE0FFF1FEC56FE4F83818150838325
:10083000CC0FDD1FCC0FDD1FCC56DE4F41E06B81AE
:100840008A81AEDD1F5F80916602181748F291DE43
:10085000109263021092620283E090E0C7C083E0CE
:100860008093720440E0609106018091070198DD59
:1008700080916704882341F0809107019091640280
:10088000891B8093070105C08091070181508093E7
:10089000070141E0609106018091070181DD8091AF
:1008A00066028823C1F110E0C12FD0E0FE01EE0FF7
:1008B000FF1FEE0FFF1FEC56FE4F40E06381828169
:1008C0006FDD80916704882369F0FE01EE0FFF1F42
:1008D000EE0FFF1FEC56FE4F828190916402891B40
:1008E00082830AC0FE01EE0FFF1FEE0FFF1FEC56C2
:1008F000FE4F828181508283CC0FDD1FCC0FDD1F24
:10090000CC56DE4F41E06B818A814ADD1F5F8091CA
:100910006602181748F22DDE1092610210926002F2
:1009200084E090E063C084E08093720440E06091D2
:1009300006018091070134DD80916704882341F02E
:100940009091070180916402890F8093070105C08F
:10095000809107018F5F8093070141E0609106015C
:10096000809107011DDD809166028823C1F110E0AE
:10097000C12FD0E0FE01EE0FFF1FEE0FFF1FEC5660
:10098000FE4F40E0638182810BDD80916704882304
:1009900069F0FE01EE0FFF1FEE0FFF1FEC56FE4F3A
:1009A000928180916402890F82830AC0FE01EE0F5A
:1009B000FF1FEE0FFF1FEC56FE4F82818F5F828379
:1009C000CC0FDD1FCC0FDD1FCC56DE4F41E06B811D
:1009D0008A81E6DC1F5F80916602181748F2C9DD44
:1009E000109261021092600285E090E0DF91CF9159
:1009F0001F910895109A119A0895119A109A1198BA
:100A000020B130E02095309522FB882780F990E0D6
:100A100040E150E01098880F991F20B130E02095F8
:100A2000309522FB662760F970E0862B972B109A91
:100A30004150510979F708956093080170930901B5
:100A400080930A0190930B01609367027093680290
:100A50008093690290936A0208958BE080938100ED
:100A60008DE790E0909389008093880082E08093E6
:100A70006F0010928500109284008091080190917F
:100A80000901A0910A01B0910B0180936702909334
:100A90006802A0936902B0936A028FB780688FBF23
:100AA00008951F920F920FB60F9211248F939F9368
:100AB000AF93BF938091670290916802A091690201
:100AC000B0916A020197A109B109809367029093DE
:100AD0006802A0936902B0936A02892B8A2B8B2B40
:100AE00099F481E080936B02809108019091090153
:100AF000A0910A01B0910B01809367029093680264
:100B0000A0936902B0936A02BF91AF919F918F91B8
:100B10000F900FBE0F901F901895181619065CF0D5
:100B20000895000021503109E1F74F5F5F4F8417AE
:100B3000950719F4089540E050E027E033E0F1CF45
:100B40005E9888B95F9A00005F9882E090E0E5CFF8
:100B5000089581E0F5CF0895813118F48158F0CFE0
:100B600008958155EDCF089584E690E0D6DF88E3BF
:100B7000E7DF86E0E5DF8FE0E3DF81E0E1DF8AE0C9
:100B800090E0CBCF08955E9A88B95F9A00005F9895
:100B900081E090E0C2CF08951F93CF93DF93FB01D4
:100BA0009081992351F0EB0111E0180FD5DF899165
:100BB000EADF812F98819111F7CFDF91CF911F91BB
:100BC0000895CF92DF92EF92FF926B017C019B011F
:100BD000AC0160919001709191018091920190918E
:100BE000930106D4882309F44FC020E030E0A90126
:100BF000C701B601FDD3811106C0E1E9F0E08081B3
:100C00008870808305C0E1E9F0E0808183608083A3
:100C100028E539E344E75FE3C701B601E9D3882358
:100C20003CF48FEF9FEF909399008093980023C03E
:100C300020E034E244EF56E4C701B601EBD41816C5
:100C40002CF4109299001092980015C020E030E02A
:100C500040E053E4C701B601E1D49B01AC0160E080
:100C600074E284EF9AE4C8D32FD461507109709371
:100C700099006093980016BCC0929001D0929101A7
:100C8000E0929201F0929301FF90EF90DF90CF906D
:100C9000089580E4809390008BE08093910060E061
:100CA00070E0CB018ECF0895CF93DF93CDB7DEB741
:100CB00028970FB6F894DEBF0FBECDBF83E081B991
:100CC00012B88FEF84B915B887B918B88AB91BB8AC
:100CD00080E090E0EADACB01A3D588E0ECE0F1E037
:100CE000DE01119601900D928A95E1F7E5E8F1E0B9
:100CF000108281E090E0A0E0B0E081839283A38342
:100D0000B48385839683A783B0872DEE39E032873D
:100D10002187EAE7F1E0108281839283A383B48381
:100D200085839683A783B08720EB37E032872187BE
:100D3000EFE6F1E0108281839283A383B4838583FD
:100D40009683A783B08720ED32E032872187E4E6DF
:100D5000F1E0108281839283A383B4838583968399
:100D6000A783B08789E199E09287818761E070E08D
:100D700080E090E061DE71DE10926B02F5DEC9DA90
:100D800039DE87DF7E0129E0E20EF11CCE010196FB
:100D90006C01D6010D911D916D01F80145815681BF
:100DA0006781708581819281A381B4814817590739
:100DB0006A077B0779F480810184F285E02D082E93
:100DC000000C990B0995D8018C93F80115821682B5
:100DD00017821086F80185819681A781B0850196DA
:100DE000A11DB11D85839683A783B087CE14DF0430
:100DF00081F680916B028823E1F310926B02FFE38E
:100E00002DE083E0F15020408040E1F700C0000079
:100E1000BDCF03D560E570E070D405960895FDD48C
:100E200068E270E06AD405960895809107018823EE
:100E300011F0833519F481E08093780480910601E4
:100E4000882311F08F3221F481E08093770408C069
:100E500080917804811104C080917704882339F04F
:100E60008EDA82E080935C0281E0809373040895BF
:100E7000CF93C0E041E06C2F80E092DA41E06C2F2C
:100E800083E58EDACF5FC033A9F7C0E041E060E0D0
:100E90008C2F86DA41E06FE28C2F82DACF5FC43587
:100EA000A9F767DBCF910895CF93C0E040E06C2FA6
:100EB00080E076DA40E06C2F83E572DACF5FC033F2
:100EC000A9F7C0E040E060E08C2F6ADA40E06FE212
:100ED0008C2F66DACF5FC435A9F74BDBCF9108952D
:100EE00080915C02811104C060E070E0CB0169DE9A
:100EF00080915C02813041F460E070E086E993E427
:100F000060DE10925C020895823039F460E070E097
:100F100088EC92E456DE10925C02089580E190E045
:100F2000BDD4809366044AE06DE674E090E083D41B
:100F300064E171E081E130DE6DE674E08DE12CCE9C
:100F4000089580E190E0AAD48093660460916502E0
:100F5000861728F46093660480E190E0A7C40895A2
:100F6000EF92FF920F931F93CF93DF938130910500
:100F700099F01CF4892B39F041C08230910571F150
:100F8000039789F13BC0CADF80915F02882309F48F
:100F900035C0DFDDF4D968C048DFA2DF80915E0292
:100FA000811105C080917304882309F45DC0D1DDEF
:100FB000E6D97ADF40E06091060180910701F0D91F
:100FC00040E06091040180910501EAD9D2DA1092E3
:100FD00078041092770482E090E083C080917304DB
:100FE000811159C00BC0ADDF80915D02882309F4E7
:100FF00052C080915F0281114EC0C1D961E271E09F
:1010000081E0CADD40E06091060180910701C8D906
:1010100040E06091040180910501C2D90F2EF4E6F1
:10102000EF2EF4E0FF2EF02D19E1F7011083C5E655
:10103000D4E00AE0088361E082E391E088DAF70116
:101040000083188361E088E391E081DA92DA1092FC
:101050007804109277041092730410925D0210923B
:10106000650280E090E03DC003DF809165024AE0C8
:1010700068E674E090E0DFD369E171E081E08CDD47
:1010800068E674E088E088DD64E471E081E184DD95
:1010900081E090E026C0809165024AE068E674E055
:1010A00090E0C9D364E571E081E076DD69E171E04B
:1010B00081E172DD68E674E089E16EDD89E18093AB
:1010C00064048AE08093650462E08FE591E03FDA92
:1010D00050DA10927804109277041092730483E02F
:1010E00090E0DF91CF911F910F91FF90EF900895C5
:1010F0006F927F928F929F92AF92BF92CF92DF9228
:10110000EF92FF920F931F93CF93DF93409166026C
:10111000442309F47FC02091720450916704E0E9F0
:10112000F1E090E0C42FD0E08E01000F111F000FFE
:10113000111F00571E4F580133E0A30EB11C680168
:10114000A2E0CA0ED11CCC0FDD1FCC0FDD1FCC5688
:10115000DE4F7801BFEFEB1AFB0A77247A94780E02
:1011600088248394880E99249A94960E71E0760FC1
:10117000368134833781358391111CC0213019F4B5
:10118000868377830EC0223019F48683978209C044
:10119000233019F48682678304C0243011F47682E8
:1011A0006783552391F1D7013C91D8016C906A82F5
:1011B0003B832BC03081368331813783213031F43A
:1011C0003281348333813F5F358317C0223031F45D
:1011D000328134833381315035830FC0233031F471
:1011E00032813F5F34833381358307C0243029F453
:1011F00032813150348333813583552331F0D50129
:101200003C91D6016C906A823B839F5F3496941721
:1012100008F4AECFDF91CF911F910F91FF90EF9027
:10122000DF90CF90BF90AF909F908F907F906F9006
:101230000895CF93DF93EC018130910561F0823006
:10124000910509F43DC0892B09F046C080915F02E9
:10125000811163C04CC080915E02811185C0809174
:101260007304811181C09091070180910501981349
:1012700081C0909106018091040198137BC081E0A8
:101280008093670480935C0280937404809165026C
:101290008F5F80936502809166028F5F8093660204
:1012A000809164028E5F80936402C2E0D0E002C04D
:1012B000C0E0D0E0609106018091070119DF0EC007
:1012C00080915E02811113C091E02091730421117D
:1012D00090E0C92FD82F02C0C0E0D0E0C130D105C6
:1012E000E1F0C230D10529F1209709F048C088E229
:1012F000809305018AE08093040141E06AE088E27E
:101300004FD837D910925E0210926704109274047D
:1013100010926602C0E0D0E032C041E0609104016A
:10132000809105013DD825D910925F02C1E0D0E03F
:1013300026C080916704882391F040E06091040109
:10134000809105012DD865DD8093050168DD8093CE
:10135000040141E0682F8091050122D80AD910923A
:101360006704109274040BC080917404882309F4FC
:10137000BECF9ECF80917404882379F29BCFCE019B
:10138000DF91CF9108958091750490917604009734
:1013900019F187FF03C021E020935D0290FF03C095
:1013A00021E02093600291FF03C021E020936102BD
:1013B00092FF03C021E02093630293FF03C021E06A
:1013C0002093620294FF03C021E020935F0295FF07
:1013D00003C081E080935E020895892B31F40DDB18
:1013E0009093760480937504CEDF80E090E00895BA
:1013F0009CD008F481E008950CD0D2C0CAD040F04F
:10140000C1D030F021F45F3F19F0B3C05111FCC0DE
:10141000B6C0D7D098F39923C9F35523B1F3951BE0
:10142000550BBB27AA2762177307840738F09F5F05
:101430005F4F220F331F441FAA1FA9F333D00E2E74
:101440003AF0E0E830D091505040E695001CCAF7E1
:1014500029D0FE2F27D0660F771F881FBB1F2617A6
:1014600037074807AB07B0E809F0BB0B802DBF0179
:10147000FF2793585F4F2AF09E3F510568F079C0CF
:10148000C3C05F3FECF3983EDCF386957795679594
:10149000B795F7959F5FC9F7880F911D969587952A
:1014A00097F90895E1E0660F771F881FBB1F621749
:1014B00073078407BA0720F0621B730B840BBA0B07
:1014C000EE1F88F7E095089504D06894B1119CC090
:1014D00008957FD088F09F5790F0B92F9927B75182
:1014E000A0F0D1F0660F771F881F991F1AF0BA95E8
:1014F000C9F712C0B13081F086D0B1E0089583C041
:10150000672F782F8827B85F39F0B93FCCF38695DD
:1015100077956795B395D9F73EF49095809570953A
:1015200061957F4F8F4F9F4F0895990F0008550F7A
:10153000AA0BE0E8FEEF16161706E807F907C0F059
:1015400012161306E407F50798F0621B730B840B61
:10155000950B39F40A2661F0232B242B252B21F43B
:1015600008950A2609F4A140A6958FEF811D811DDB
:10157000089597F99F6780E870E060E008959FEF15
:1015800080EC089500240A9416161706180609061A
:10159000089500240A9412161306140605060895E9
:1015A000092E0394000C11F4882352F0BB0F40F471
:1015B000BF2B11F460FF04C06F5F7F4F8F4F9F4FB1
:1015C000089557FD9058440F551F59F05F3F71F033
:1015D0004795880F97FB991F61F09F3F79F087959A
:1015E0000895121613061406551FF2CF4695F1DF23
:1015F00008C0161617061806991FF1CF86957105B3
:10160000610508940895E894BB2766277727CB01E6
:1016100097F908958ADF08F48FEF08950BD0C0CFB3
:10162000B1DF28F0B6DF18F0952309F0A2CFA7CFDD
:101630001124EACFC6DFA0F3959FD1F3950F50E0B8
:10164000551F629FF001729FBB27F00DB11D639F74
:10165000AA27F00DB11DAA1F649F6627B00DA11D1A
:10166000661F829F2227B00DA11D621F739FB00DC0
:10167000A11D621F839FA00D611D221F749F332730
:10168000A00D611D231F849F600D211D822F762FC9
:101690006A2F11249F5750408AF0E1F088234AF0C6
:1016A000EE0FFF1FBB1F661F771F881F9150504012
:1016B000A9F79E3F510570F05CCFA6CF5F3FECF3DA
:1016C000983EDCF3869577956795B795F795E795FE
:1016D0009F5FC1F7FE2B880F911D9695879597F90F
:1016E0000895991B79E004C0991F961708F0961B7E
:1016F000881F7A95C9F78095089597FB072E16F4F1
:10170000009406D077FD08D02DD007FC05D03EF41C
:10171000909581959F4F0895709561957F4F08959D
:10172000A1E21A2EAA1BBB1BFD010DC0AA1FBB1FE5
:10173000EE1FFF1FA217B307E407F50720F0A21B57
:10174000B30BE40BF50B661F771F881F991F1A94C4
:1017500069F760957095809590959B01AC01BD01EE
:10176000CF010895AA1BBB1B51E107C0AA1FBB1FD5
:10177000A617B70710F0A61BB70B881F991F5A951D
:10178000A9F780959095BC01CD0108958F929F9205
:10179000AF92BF92CF92DF92EF92FF92CF93DF93FF
:1017A000EC01688179818A819B81611571058105D0
:1017B000910521F464E279ED8BE597E02DE133EFBB
:1017C00041E050E081D049015A019B01AC01A7EAF8
:1017D000B1E496D06B017C01ACEEB4EFA5019401AD
:1017E0009BD0DC01CB018C0D9D1DAE1DBF1DB7FF35
:1017F00003C00197A109B04888839983AA83BB835A
:101800009F77DF91CF91FF90EF90DF90CF90BF90C7
:10181000AF909F908F900895B9CF80E091E0B6CFC0
:10182000A0E0B0E08093000190930101A093020139
:10183000B09303010895BB274A3031F4992322F471
:10184000BDE2909581959F4F01C0BB27FB015527B5
:10185000AA27880F991FAA1FA41710F0A41B83950D
:101860005051B9F7A05DAA3308F0A95DA193009784
:1018700079F7B111B1931192CB0100C0DC01FC01E9
:10188000672F71917723E1F7329704C07C916D93B4
:1018900070836291AE17BF07C8F30895F999FECF20
:1018A00092BD81BDF89A992780B50895262FF999A0
:1018B000FECF1FBA92BD81BD20BD0FB6F894FA9A33
:1018C000F99A0FBE01960895052E97FB16F4009421
:1018D0000FD057FD05D024DF07FC02D046F408C026
:1018E00050954095309521953F4F4F4F5F4F08954C
:1018F00090958095709561957F4F8F4F9F4F08957C
:101900000FD0A59F900DB49F900DA49F800D911DA9
:1019100011240895B7FFF4CFF3DF821B930B0895D2
:10192000A29FB001B39FC001A39F700D811D112420
:10193000911DB29F700D811D1124911D0895F89481
:02194000FFCFD7
:10194200010000000A280A0A0100000085017A014C
:101952006F016401486967682053636F72653A20BA
:1019620000557365204470616420746F206D6F763A
:101972006500536E616B650050726573732053543A
:101982004152540053454C4543543A2052657374B6
:101992006172740047616D65204F76657221004F58
:0419A2004F460000AC
:040000050080025F16
:00000001FF
