S0170000534E45535F6E6F6B69615F746573742E7372656344
S113000035C1000050C100004EC100004CC10000C9
S11300104AC1000048C1000046C1000044C10000BC
S113002042C1000040C100003EC100003CC10000CC
S11300303AC10000F6C2000036C1000034C100001D
S113004032C1000030C100002EC100002CC10000EC
S11300502AC1000028C1000026C1000024C10000FC
S113006022C1000020C100001EC100001CC100000C
S11300701AC1000018C1000016C1000014C100001C
S113008012C1000010C100000EC1000000000000F9
S11300900000005F00000007000700147F147F14B5
S11300A0242A7F2A122313086462364955225000F9
S11300B005030000001C2241000041221C0014081A
S11300C03E081408083E08080050300000080808DC
S11300D00808006060000020100804023E514945F1
S11300E03E00427F400042615149462141454B3127
S11300F01814127F1027454545393C4A49493001B7
S1130100710905033649494936064949291E00360D
S1130110360000005636000008142241001414145E
S1130120141400412214080201510906324979418C
S11301303E7E1111117E7F494949363E414141229B
S11301407F4141221C7F494949417F090909013EF8
S11301504149497A7F0808087F00417F41002040D7
S1130160413F017F081422417F404040407F020C00
S1130170027F7F0408107F3E4141413E7F09090907
S1130180063E4151215E7F091929464649494931B4
S113019001017F01013F4040403F1F2040201F3F9D
S11301A04038403F6314081463070870080761511E
S11301B0494543007F4141000204081020004141A9
S11301C07F00040201020440404040400001020458
S11301D00020545454787F484444383844444420DC
S11301E0384444487F3854545418087E0901020C9A
S11301F05252523E7F0804047800447D400020405F
S1130200443D007F1028440000417F40007C0418D6
S113021004787C0804047838444444387C14141466
S113022008081414187C7C08040408485454542006
S1130230043F4440203C4040207C1C2040201C3C87
S11302404030403C44281028440C5050503C4464F6
S1130250544C44000836410000007F000000413641
S113026008001008081008000000000011241FBE38
S1130270CFEFD0E4DEBFCDBF11E0A0E0B1E0E6EA0D
S1130280F8E000E00BBF02C007900D92A033B10765
S1130290D9F723E0A0E3B1E001C01D92A233B20775
S11302A0E1F7D0D2FEC2ACCE5C98662311F05A9A24
S11302B015C05A9813C0AC01022E02C0559547953B
S11302C00A94E2F740FF02C0599A01C05998589A1B
S11302D058982150310978F75C9A089527E030E066
S11302E090E0E9CF60E0E0CF0895109A119A089564
S11302F0119A109A119820B130E02095309522FB84
S1130300882780F990E040E150E01098880F991F09
S113031020B130E02095309522FB662760F970E02B
S1130320862B972B109A4150510979F70895CF9352
S1130330DF93549A539A529A519A509A5B9A5C9AC0
S113034083EC99E00197F1F700C000005B988BE51E
S113035094E40197F1F700C000005B9A5C9881E295
S1130360C1DF83E1BFDF86E0BDDF82ECBBDF80E27B
S1130370B9DF89E0B7DF80E8B5DF80E4B3DFC8EF39
S1130380D1E061E080E090DF2197D9F788E0AADF2F
S11303908CE0A8DFDF91CF91089580E8A3DF80E4AB
S11303A0A1DF10922D0310922E03E5E3F1E08DE21C
S11303B093E01192E817F907E1F70895262F26959F
S11303C02695269590E034E5239F800D911D1124F8
S11303D0442379F0FC01EB5CFE4F677081E090E010
S11303E002C0880F991F6A95E2F79081892B808358
S11303F00895FC01EB5CFE4F677081E090E002C061
S1130400880F991F6A95E2F78095908189238083EC
S113041008955F926F927F928F929F92AF92BF9254
S1130420CF92DF92EF92FF920F931F93CF93DF93BC
S1130430562E262F30E04901880C991C880C991CF3
S1130440820E931E181419040CF059C08901000F70
S1130450111F000F111F000F111F021B130B612C22
S1130460A82EB12CC50180975C01AA0CBB1CAA0C58
S1130470BB1CA80EB91E0F2EFEE2CF2EF3E0DF2E1A
S1130480F02D0F2EFDE2EF2EF3E0FF2EF02D2AC00B
S1130490FE01249130E0872D652DF7D102C03595FA
S11304A027958A95E2F720FF09C0F6016081670D60
S11304B0F701808141E0860D81DF08C0F60160818B
S11304C0670DF701808140E0860D78DF7394872DF6
S11304D090E080179107E4F26394862D90E08815EC
S11304E099056CF410161106BCF7862D652DCDD137
S11304F0E501C80FD11DC457DF4F712CC9CF8091BE
S11305002D0391E0980F852D880F880F850D890F95
S1130510843518F480932D030EC010922D03EEE25F
S1130520F3E0808191E0980F852D880F880F880F64
S11305308519890F808380912E03803320F01092D7
S11305402D0310922E03DF91CF911F910F91FF90F5
S1130550EF90DF90CF90BF90AF909F908F907F905F
S11305606F905F9008951F93CF93DF93EC01888180
S1130570882339F0162F2196612F4BDF8991811141
S1130580FBCFDF91CF911F9108950F931F93CF93CA
S1130590DF9380E8A7DE80E4A5DEC5E3D1E00DE2C9
S11305A013E061E0899180DEC017D107D1F7DF91B4
S11305B0CF911F910F9108956093000170930101F1
S11305C08093020190930301609330017093310191
S11305D0809332019093330108958BE080938100DE
S11305E08DE790E0909389008093880082E0809367
S11305F06F00109285001092840080910001909108
S11306000101A0910201B091030180933001909304
S11306103101A0933201B09333018FB780688FBF4B
S113062008951F920F920FB60F9211248F939F93E8
S1130630AF93BF938091300190913101A091320129
S1130640B09133010197A109B109809330019093CE
S11306503101A0933201B0933301892B8A2B8B2B68
S113066099F481E08093340180910001909101011B
S1130670A0910201B0910301809330019093310164
S1130680A0933201B0933301BF91AF919F918F91A9
S11306900F900FBE0F901F9018958091300390918A
S11306A03103009709F4C2C084FF0BC076DE1092B8
S11306B02D038AE080932E0361E084E091E053DF10
S11306C064DF8091300385FF0BC067DE10922D0339
S11306D08AE080932E0361E086E091E044DF55DFF9
S11306E08091300386FF0BC058DE10922D038AE000
S11306F080932E0361E088E091E035DF46DF80914E
S1130700300387FF0BC049DE10922D038AE08093EB
S11307102E0361E08AE091E026DF37DF8091300329
S11307209091310390FF0BC038DE10922D038AE0C4
S113073080932E0361E08CE091E015DF26DF809149
S113074030039091310391FF0BC027DE10922D03EB
S11307508AE080932E0361E082E191E004DF15DFFB
S1130760809130039091310392FF0BC016DE1092FA
S11307702D038AE080932E0361E087E191E0F3DEAC
S113078004DF809130039091310393FF0BC005DEA9
S113079010922D038AE080932E0361E08CE191E0B6
S11307A0E2DEF3DE809130039091310394FF0BC0BD
S11307B0F4DD10922D038AE080932E0361E08FE133
S11307C091E0D1DEE2DE809130039091310395FF18
S11307D00BC0E3DD10922D038AE080932E0361E0C9
S11307E085E291E0C0DED1DE809130039091310347
S11307F096FF0BC0D2DD10922D038AE080932E0366
S113080061E08CE291E0AFDEC0DE80913003909134
S1130810310399235CF4C1DD10922D038AE08093A7
S11308202E0361E08EE291E09EDEAFCE0895892B27
S113083031F45EDD90933103809330032EDF80E04A
S113084090E0089583E081B912B861E070E080E03F
S113085090E0B2DEC2DE1092340169DD46DD8091A3
S11308602F0390E0E4DF80932F03809134018823E9
S1130870E1F3109234012FE38DE093E021508040A6
S11308809040E1F700C00000EACF991B79E004C072
S1130890991F961708F0961B881F7A95C9F78095BB
S10908A00895F894FFCF57
S11308A60100000052004C0058004100526967687C
S11308B674004C65667400446F776E00557000537F
S11308C6746172740053656C656374005900420068
S9030000FC
